:1000000010C02AC029C028C065C026C025C024C091
:1000100023C022C021C020C01FC01EC01DC01CC0E4
:100020001BC011241FBECFE5D2E0DEBFCDBF10E064
:10003000A0E6B0E0EAEDF4E002C005900D92A2382F
:10004000B107D9F720E0A2E8B0E001C01D92A438C2
:10005000B207E1F7F0D13FC2D3CF853081F4BA9A2D
:100060006115710539F4C298BA9880B78F7780BF4F
:1000700016BE089580B7806880BF66BF0895863039
:1000800079F4D79A6115710539F4DF98D79880B75C
:100090008F7D80BF1CBE089580B7806280BF6CBF1B
:1000A0000895F8949C010A9714F029E030E0822F1B
:1000B0008770283031050CF08062806194B7977F9B
:1000C00094BF91B5986191BD81BD81B5806481BDBA
:1000D000789408951F920F920FB60F9211248F9368
:1000E00081E0809380008F910F900FBE0F901F9042
:1000F0001895EF92FF920F931F93CF93DF9302E82F
:1001000010E0C0E6D0E07801F701729162917F01C2
:1001100085E0A3DF8BE49DE10197F1F700C00000CB
:1001200090E6E91690E0F90679F76FEF70E085E068
:1001300094DFE7EAF1E63197F1F700C0000080E6CE
:10014000E82E80E0F82EF701619171917F0185E042
:1001500084DF8BE49DE10197F1F700C0000090E897
:10016000E91690E0F90679F760E070E085E075DF68
:10017000F801729162918F0186E06FDF8BE49DE15F
:100180000197F1F700C0000090E00036190781F7F1
:100190006FEF70E086E061DFE7EAF1E63197F1F7B3
:1001A00000C000006991799186E057DF8BE49DE102
:1001B0000197F1F700C0000090E0C038D90791F72F
:1001C00060E070E086E049DFC09AD89AEFE9F6E88F
:1001D00021E0E150F0402040E1F700C00000C19A6A
:1001E0008FE996E8E1E081509040E040E1F700C0FF
:1001F0000000C1988BE49DE10197F1F700C0000079
:10020000D99A9FE9E6E8F1E09150E040F040E1F74B
:1002100000C00000D9988BE49DE10197F1F700C080
:100220000000DA9A9FE9E6E8F1E09150E040F04002
:10023000E1F700C00000DA988BE49DE10197F1F747
:1002400000C00000DB9A9FE9E6E8F1E09150E04051
:10025000F040E1F700C00000DB988BE49DE10197DE
:10026000F1F700C00000D898C098DF91CF911F919E
:100270000F91FF90EF900895BA9AD79AC09A2FE9FC
:1002800086E891E0215080409040E1F700C00000F6
:10029000C0988BE49DE10197F1F700C00000C19A7E
:1002A0009FE926E881E0915020408040E1F700C0BE
:1002B0000000C1988BE49DE10197F1F700C00000B8
:1002C000C29A9FE926E881E0915020408040E1F702
:1002D00000C00000C2988BE49DE10197F1F700C0D7
:1002E0000000D89A9FE926E881E0915020408040A4
:1002F000E1F700C00000D8988BE49DE10197F1F789
:1003000000C00000D99A9FE926E881E09150204082
:100310008040E1F700C00000D9988BE49DE101978F
:10032000F1F700C00000DA9A9FE926E881E09150D9
:1003300020408040E1F700C00000DA988BE49DE1A6
:100340000197F1F700C00000DB9A9FE926E881E001
:10035000915020408040E1F700C00000DB988BE422
:100360009DE10197F1F700C00000DF9A9FE926E8C0
:1003700081E0915020408040E1F700C00000DF980C
:100380008BE49DE10197F1F700C0000008958AE039
:1003900090E0C098D89AE7EAF1E63197F1F700C00B
:1003A0000000D898C09AE7EAF1E63197F1F700C06B
:1003B0000000019771F7D898C0980895BA9AD79A13
:1003C000C09AC19AC29AD89AD99ADA9ADB9ADF9AD5
:1003D0002FE78AE196E0215080409040E1F700C08D
:1003E0000000C098C198C298D898D998DA98DB983C
:1003F000DF980895B89AB99AD09AD19AD29AD39A96
:100400008130910561F024F4892B61F472DE0AC019
:100410008230910531F0039729F4D0DF03C02CDF3F
:1004200001C0B5DFB898B998BA98D098D198D29849
:10043000D398D7980895B89AB99ABA9AD09AD19A77
:10044000D29AD39AD79AD498D598D698DC9ADD9A2E
:10045000DE9A80B7816080BF80B7826080BF83B73B
:10046000816083BF83B7826083BF87E090E019DE3D
:10047000809180008823E1F31092800080918200B7
:1004800090918300B7DF8091820090918300019664
:10049000843091052CF4909383008093820004C0F3
:1004A000109283001092820087E090E0FADD379886
:1004B00085B7877E806185BF85B7806285BF85B738
:1004C000806285BF889585B78F7D85BF85B78F7D15
:0A04D00085BF379ACDCFF894FFCF17
:1004DA00FF00D900B9009E00860073006200470041
:1004EA003C0033002C00250020001B0014000500EE
:0204FA000100FF
:00000001FF
